:100000000C945D000C9485000C9485000C94850084
:100010000C9485000C9485000C9485000C9485004C
:100020000C9485000C9485000C9485000C9485003C
:100030000C9485000C9485000C9485000C9485002C
:100040000C9412030C9485000C9482030C945C03B2
:100050000C9485000C9485000C9485000C9485000C
:100060000C9485000C94850000000008000201003B
:100070000003040700000000000000000000000072
:10008000250028002B0000000000240027002A0083
:10009000040404040404040402020202020203032E
:1000A0000303030301020408102040800102040836
:1000B0001020010204081020A40511241FBECFEF58
:1000C000D8E0DEBFCDBF21E0AAE1B1E001C01D92C2
:1000D000A43CB207E1F711E0A0E0B1E0ECE1F0E10F
:1000E00002C005900D92AA31B107D9F710E0CDE515
:1000F000D0E004C02197FE010E941406CC35D10740
:10010000C9F70E94B4030C940C080C94000090E012
:10011000FC01EC55FF4F249180579F4FFC018491C7
:10012000882399F090E0880F991FFC01EA57FF4F50
:10013000A591B491FC01E458FF4F859194918FB73C
:10014000F894EC91E22BEC938FBF089590E0FC01C2
:10015000E859FF4F2491FC01EC55FF4F3491FC010D
:10016000E057FF4FE491EE23C9F0222339F023300A
:1001700001F1A8F4213019F1223029F1F0E0EE0F5D
:10018000FF1FE458FF4FA591B4918FB7F894EC91FD
:10019000611126C030953E233C938FBF08952730D0
:1001A000A9F02830C9F0243049F7809180008F7D74
:1001B00003C0809180008F7780938000DFCF84B56B
:1001C0008F7784BDDBCF84B58F7DFBCF8091B0006E
:1001D0008F778093B000D2CF8091B0008F7DF9CF20
:1001E0003E2BDACF3FB7F89480911B0190911C0110
:1001F000A0911D01B0911E0126B5A89B05C02F3FFF
:1002000019F00196A11DB11D3FBFBA2FA92F982F3C
:100210008827BC01CD01620F711D811D911D42E037
:10022000660F771F881F991F4A95D1F708958F92FF
:100230009F92AF92BF92CF92DF92EF92FF924B01CB
:100240005C010E94F2006B017C010E94F2006C19BB
:100250007D098E099F09683E734081059105A8F3C9
:1002600021E0821A9108A108B10888EEC80E83E047
:10027000D81EE11CF11C81149104A104B10429F7DA
:10028000FF90EF90DF90CF90BF90AF909F908F90B6
:100290000895AF92BF92CF92DF92EF92FF920F93A9
:1002A0001F93CF93DF936C017B018B01040F151F0C
:1002B000EB015E01AE18BF08C017D10759F0699174
:1002C000D601ED91FC910190F081E02DC6010995D8
:1002D000892B79F7C501DF91CF911F910F91FF9085
:1002E000EF90DF90CF90BF90AF900895FC01538DB9
:1002F000448D252F30E0842F90E0821B930B541700
:1003000010F0CF96089501970895FC01918D828D8C
:10031000981761F0A28DAE0FBF2FB11D5D968C9125
:10032000928D9F5F9F73928F90E008958FEF9FEF64
:1003300008952FB7F89480911F0190912001A0910A
:100340002101B09122012FBF80932B0190932C01AA
:10035000A0932D01B0932E0183E291E00E948501CC
:1003600097FF26C02FB7F89480911F01909120012C
:10037000A0912101B09122012FBF40912B015091FA
:100380002C0160912D0170912E01841B950BA60B01
:10039000B70B40912701509128016091290170917C
:1003A0002A0184179507A607B707B0F28FEF9FEFD2
:1003B0000895FC01918D828D981731F0828DE80FA0
:1003C000F11D858D90E008958FEF9FEF0895FC015A
:1003D000918D228D892F90E0805C9F4F821B910927
:1003E0008F739927089583E291E00E94E70121E04D
:1003F000892B09F420E0822F089580E090E0892B7A
:1004000029F00E94F30181110C9400000895FC0171
:10041000A48DA80FB92FB11DA35ABF4F2C91848D65
:1004200090E001968F739927848FA689B7892C93C2
:10043000A089B1898C91837080648C93938D848D15
:10044000981306C00288F389E02D80818F7D808318
:100450000895EF92FF920F931F93CF93DF93EC01D8
:1004600081E0888F9B8D8C8D98131AC0E889F9895B
:10047000808185FF15C09FB7F894EE89FF8960835E
:10048000E889F98980818370806480839FBF81E0DF
:1004900090E0DF91CF911F910F91FF90EF90089521
:1004A000F62E0B8D10E00F5F1F4F0F731127E02EFC
:1004B0008C8D8E110CC00FB607FCFACFE889F98934
:1004C000808185FFF5CFCE010E940702F1CFEB8D31
:1004D000EC0FFD2FF11DE35AFF4FF0829FB7F89408
:1004E0000B8FEA89FB8980818062CFCFCF93DF9326
:1004F000EC01888D8823B9F0AA89BB89E889F9893C
:100500008C9185FD03C0808186FD0DC00FB607FC70
:10051000F7CF8C9185FFF2CF808185FFEDCFCE01A3
:100520000E940702E9CFDF91CF91089561E08DE04D
:100530000E94A60060E08DE00C94A600DF92EF928E
:10054000FF920F931F93CF93DF93E82E062FD42EA5
:1005500060E0842F0E94A600C7E0D0E0F12CC70124
:100560000C2E02C0959587950A94E2F761E080FF12
:1005700060E08BE00E94A6000E949602219778F727
:10058000C7E0D0E010E0C8010C2E02C09595879519
:100590000A94E2F761E080FF60E08BE00E94A60031
:1005A000C11115C061E08DE00E94A600219758F7A7
:1005B00061E08D2D0E94A60060E08DE0DF91CF917B
:1005C0001F910F91FF90EF90DF900C94A6000E9476
:1005D0009602ECCF0F931F93CF93DF93EC018881AA
:1005E0009981009759F02A813B812617370730F00F
:1005F00081E0DF91CF911F910F9108958B016F5F83
:100600007F4F0E943F07009759F0998388831B838F
:100610000A832C813D81232B59F7FC011082E8CFFE
:1006200080E0E7CF1F920F920FB60F9211242F9305
:100630003F938F939F93AF93BF9380911F019091AE
:100640002001A0912101B091220130911A0123E0F3
:10065000230F2D3758F50196A11DB11D20931A01C6
:1006600080931F0190932001A0932101B093220158
:1006700080911B0190911C01A0911D01B0911E0160
:100680000196A11DB11D80931B0190931C01A093A5
:100690001D01B0931E01BF91AF919F918F913F912A
:1006A0002F910F900FBE0F901F90189526E8230FE3
:1006B0000296A11DB11DD2CF1F920F920FB60F92BD
:1006C00011242F933F934F935F936F937F938F9357
:1006D0009F93AF93BF93EF93FF9383E291E00E94C8
:1006E0000702FF91EF91BF91AF919F918F917F9101
:1006F0006F915F914F913F912F910F900FBE0F908F
:100700001F9018951F920F920FB60F9211242F93DE
:100710008F939F93EF93FF93E0913301F091340116
:100720008081E0913901F0913A0182FD1BC09081F6
:1007300080913C018F5F8F7320913D01821741F0C2
:10074000E0913C01F0E0ED5DFE4F958F80933C0120
:10075000FF91EF919F918F912F910F900FBE0F906E
:100760001F9018958081F4CFCF93DF93CDB7DEB77C
:1007700028970FB6F894DEBF0FBECDBF789484B52E
:10078000826084BD84B5816084BD85B5826085BD8D
:1007900085B5816085BD80916E00816080936E001B
:1007A000109281008091810082608093810080910D
:1007B00081008160809381008091800081608093BE
:1007C00080008091B10084608093B1008091B0007E
:1007D00081608093B00080917A00846080937A0079
:1007E00080917A00826080937A0080917A008160A3
:1007F00080937A0080917A00806880937A001092CA
:10080000C1008BE00E9487008DE00E94870082E09B
:100810000E94870083E00E94870060E08DE00E94D4
:10082000A60060E08BE00E94A60061E082E00E94EA
:10083000A60061E083E00E94A60012E0412F6FEF66
:1008400081E00E949E02412F64E182E00E949E02AC
:10085000412F67E083E00E949E02412F61E084E027
:100860000E949E02412F60E08CE00E949E021330A5
:1008700009F0ABC042E061E087E00E949E0264E6BE
:1008800070E080E090E00E94170142E060E087E0C5
:100890000E949E0264E670E080E090E00E941701F2
:1008A00043E061E087E00E949E0264E670E080E041
:1008B00090E00E94170143E060E087E00E949E0202
:1008C00064E670E080E090E00E941701E09133015F
:1008D000F091340182E08083E0912F01F0913001AA
:1008E0001082E0913101F09132018FEC80831092FF
:1008F0003B01E0913701F091380186E08083E0917F
:100900003501F0913601808180618083E09135016D
:10091000F0913601808188608083E0913501F0910B
:100920003601808180688083E0913501F091360145
:1009300080818F7D808330E0632E30E0732E83E2F0
:1009400091E00E94E701181619060CF0F1C01A8216
:1009500019821C821B821E821D8270E060E0CE0123
:1009600001960E94EA0229813A81811130C0211545
:10097000310519F0C9010E94B6061A8219821E8239
:100980001D821C821B820E9499010D811E8197FD90
:1009900026C08A30910519F18F8318860F5F1F4F8B
:1009A000B801CE0101960E94EA02882361F32981F1
:1009B0003A818D819E81BE01695F7F4F820F931FB7
:1009C0000E9405081E830D83DECF13E037CF1E8201
:1009D0001D8268E171E0C9010E940508D4CFC98079
:1009E000DA80C114D10429F076010115110509F04E
:1009F0005DC08D819E81892B09F494C0E981FA81C3
:100A0000DF010D900020E9F711976D01CE1ADF0A82
:100A10008F01B12CA12C4601FFE08F0E911C8A148E
:100A20009B040CF479C020E6F22E42E060E28F2DA8
:100A30000E949E02F39488E6F812F7CF90E6F92E12
:100A400043E060E28F2D0E949E02F394E8E6FE12DE
:100A5000F7CFF12CE12CC5018E0D9F1D8C159D0546
:100A60008CF4A70183E0559547958A95E1F74E5F91
:100A7000F801EE0DFF1D6081C70187709927805A2C
:100A80000E949E02FFEFEF1AFF0A80E1E816F104D0
:100A900011F762E370E080E090E00E941701EFEF51
:100AA000AE1ABE0A0F5F1F4FBACF750157018FEF05
:100AB000A81AB80AF7018081082E000C990B0E9431
:100AC000D105892B91F7015011090C0D1D1DF8015D
:100AD0008081082E000C990B0E94D105892B31F0E2
:100AE0000E151F0518F001501109F1CFA8014F5F35
:100AF0005F4F4E195F095E834D83CE14DF0420F4EF
:100B0000B701C6010E94FC07E981FA818D819E81AF
:100B1000E80FF91F10826DCF68EE73E080E090E07F
:100B20000E94170189819A81009711F00E94B606F0
:100B30006114710409F403CF0E94F301882309F4BE
:100B4000FECE0E940000FBCEE3E2F1E013821282AF
:100B500088EE93E0A0E0B0E084839583A683B7831A
:100B60008AE091E09183808385EC90E0958784878B
:100B700084EC90E09787868780EC90E0918B808B67
:100B800081EC90E0938B828B82EC90E0958B848B50
:100B900086EC90E0978B868B118E128E138E148EBE
:100BA000089591110C94DA05803219F0895085501E
:100BB000C8F708959927882708952F923F924F925A
:100BC0005F926F927F928F929F92AF92BF92CF92DD
:100BD000DF92EF92FF920F931F93CF93DF93CDB7E6
:100BE000DEB7CA1BDB0B0FB6F894DEBF0FBECDBF5E
:100BF00009942A88398848885F846E847D848C842F
:100C00009B84AA84B984C884DF80EE80FD800C8137
:100C10001B81AA81B981CE0FD11D0FB6F894DEBF1A
:100C20000FBECDBFED010895EE0FFF1F0590F491AB
:100C3000E02D09940F931F93CF93DF93823091059A
:100C400010F482E090E0E091C201F091C30130E045
:100C500020E0B0E0A0E0309799F42115310509F4C7
:100C60004AC0281B390B24303105D8F58A819B8175
:100C70006115710589F1FB0193838283FE0111C027
:100C8000408151810281138148175907E0F04817CC
:100C9000590799F4109761F012960C9312971396D6
:100CA0001C933296CF01DF91CF911F910F91089540
:100CB0000093C2011093C301F4CF2115310551F007
:100CC0004217530738F0A901DB019A01BD01DF018A
:100CD000F801C1CFEF01F9CF9093C3018093C20116
:100CE000CDCFFE01E20FF31F819391932250310982
:100CF00039832883D7CF2091C0013091C101232BA4
:100D000041F420910201309103013093C1012093FD
:100D1000C00120910001309101012115310541F4FC
:100D20002DB73EB74091040150910501241B350BAE
:100D3000E091C001F091C101E217F307A0F42E1B6E
:100D40003F0B2817390778F0AC014E5F5F4F24172F
:100D5000350748F04E0F5F1F5093C1014093C0010B
:100D6000819391939FCFF0E0E0E09CCFCF93DF930E
:100D70000097E9F0FC01329713821282A091C20120
:100D8000B091C301ED0130E020E01097A1F4208183
:100D90003181820F931F2091C0013091C10128172A
:100DA000390709F061C0F093C101E093C001DF9100
:100DB000CF910895EA01CE17DF07E8F54A815B81FC
:100DC0009E0141155105B1F7E901FB83EA83499181
:100DD0005991C40FD51FEC17FD0761F480819181F3
:100DE0000296840F951FE9019983888382819381FC
:100DF0009B838A83F0E0E0E012968D919C9113979B
:100E00000097B9F52D913C911197CD010296820F73
:100E1000931F2091C0013091C1012817390739F67D
:100E2000309751F51092C3011092C201B093C101E5
:100E3000A093C001BCCFD383C28340815181840F72
:100E4000951FC817D90761F44E5F5F4F888199815C
:100E5000480F591F518340838A819B8193838283EA
:100E60002115310509F0B0CFF093C301E093C20121
:100E70009ECFFD01DC01C0CF13821282D7CFB0E03C
:100E8000A0E0E5E4F7E00C94DF058C01009751F455
:100E9000CB010E941A068C01C801CDB7DEB7E0E194
:100EA0000C94FB05FC01E60FF71F9C012250310951
:100EB000E217F30708F49DC0D901CD91DC91119799
:100EC000C617D70798F0C530D10530F3CE01049787
:100ED0008617970708F3C61BD70B2297C193D193A8
:100EE0006D937C93CF010E94B606D6CF5B01AC1AFE
:100EF000BD0A4C018C0E9D1EA091C201B091C30190
:100F0000512C412CF12CE12C109731F58091C0012E
:100F10009091C1018815990509F05CC046165706E5
:100F200008F058C08091000190910101009741F4B0
:100F30008DB79EB74091040150910501841B950B1C
:100F4000E817F90708F055C0F093C101E093C0011C
:100F5000F90171836083A0CF8D919C9111971296B6
:100F60006C90129713967C901397A815B90559F5B4
:100F70006C0142E0C40ED11CCA14DB0420F1AC01A8
:100F80004A195B09DA011296159780F06282738222
:100F900051834083D9016D937C93E114F10471F086
:100FA000D7011396FC93EE93129776CF22968C0F6F
:100FB0009D1FF90191838083F301EFCFF093C3016B
:100FC000E093C20169CF4816590608F42C017D014F
:100FD000D3019ACFCB010E941A067C01009749F0F9
:100FE000AE01B8010E94FC07C8010E94B606870145
:100FF00053CF10E000E050CFFB01DC0102C00190B4
:101000000D9241505040D8F70895FB01DC0101904A
:0C1010000D920020E1F70895F894FFCF46
:10101C000000C40180000000000029024901760193
:0A102C007602E7018501D9010000FA
:00000001FF
